:020000040800F2
:1000000018F09FE518F09FE518F09FE518F09FE5C0
:1000100018F09FE50000000014F09FE514F09FE544
:10002000FC100008C4130008C4130008C41300081F
:10003000C4130008C4130008C413000800B50A0064
:100040001206120E002A01D1028A00E0428A090635
:10005000090E002902D10100143101E0010015311F
:100060001204120C914B9A4202DA0120087004E04B
:1000700002220A70C169491CC16108BC184738B521
:10008000040000F023F90500207800280BD0022896
:1000900027D01BD304286ED02ED3062800D1EBE046
:1000A00000D2A7E0FCE0824800F0D6F900F0F0F9B9
:1000B00000F086FA200000F0EDFA012020707D4863
:1000C000281860607C4800F0C7F9EBE06068854262
:1000D00006D30220207000206070784800F0BCF940
:1000E000E0E00320207001206070A069401CA06146
:1000F000734800F0B1F9D5E06078012806D00228F5
:1001000011D0032815D0052828D033E03221002053
:1001100000F00AFA0121002000F06FF9022060705F
:100120003235A56026E0A068854201D303206070C7
:1001300020E0082000F085FAA081A08900F09BFA59
:10014000208200212000FFF779FF237D228AA189E8
:10015000002000F030F9052060700BE0002000F076
:100160000DFA0021002000F048F904202070012041
:100170006070FFE796E06078012806D0022811D071
:10018000032815D0052828D033E03221012000F0C3
:10019000CBF90121012000F030F9022060703235E6
:1001A000A56026E0A068854201D30320607020E0AE
:1001B000092000F046FAE081E08900F05CFA6082F4
:1001C00001212000FFF73AFF637D628AE189012067
:1001D00000F0F1F8052060700BE0012000F0CEF98E
:1001E0000021012000F009F9052020700120607035
:1001F000FFE757E06078012806D0022811D00328D5
:1002000015D0052828D036E03221002000F08CF9E6
:100210000121002000F0F1F8022060703235A56065
:1002200029E0A068854201D30320607023E0082004
:1002300000F007FAA081A08900F01DFA20820021B9
:100240002000FFF7FBFE237D228AA189002000F019
:10025000B2F8052060700EE0002000F08FF9002158
:10026000002000F0CAF806202070002060601548C9
:1002700000F0F2F8FFE715E06068002802D10D48B1
:10028000281860606068854209D301202070094801
:1002900028186060002060700B4800F0DDF801E075
:1002A0000020207031BC08BC18470000E50C00009D
:1002B000E81200081027000008130008681300085F
:1002C00028130008641200089012000827480068EC
:1002D000704710B500F0EEF980246402200000F0B1
:1002E00000FA00F009FA0128FBD1022000F0B0FA70
:1002F000102000F0B4FA002000F010FA102000F0F6
:1003000014FA002000F018FAE0214903200000F060
:100310001AFA012000F021FA392000F05DFA0028D5
:10032000FAD0022000F02CFA00F031FA0828FBD1B4
:1003300010BC08BC184710B5FFF7CBFF0C480D499F
:10034000086000200C49086007200C49086000F094
:100350001BF80B4800F080F80A4C200000F09AF9D6
:100360002000FFF78CFEFBE7000000006404002083
:100370003F19010014E000E018E000E010E000E0A8
:10038000C81200084404002080B500F06FFA09BCD0
:10039000184700B50006000E002803D0022805D03B
:1003A00002D305E0254804E0254802E0254800E0A6
:1003B00021A008BC184778B5A3B004000E001500B2
:1003C00018000006000EFFF7E4FF02902D042D0C2C
:1003D00001953604360C00962406240E23001A4A92
:1003E000802103A800F0BAFA020003A9002000F05F
:1003F0007CFA24B070BC08BC184700B591B009065F
:10040000090E002901D011A100E011A10006000E83
:10041000002801D0072300E0062300910D4A402167
:1004200001A800F09BFA020001A9002000F05DFA8B
:1004300011B008BC184700003F000000BC130008C2
:1004400098130008A4130008481300084F4E00003A
:100450004F4646008413000810B50400200000F049
:10046000A3FA02002100002000F03FFA10BC08BCF3
:1004700018470A008168491C81604168002906D03C
:1004800001684B1C03600A704168491E4160704757
:1004900070B588B00121082000F07EF90121042008
:1004A00000F08AF96846C02101801821C17003213B
:1004B000817069463D4800F0A3FA05A847210180F4
:1004C0003B49069100240481448021008172394E09
:1004D00005A9300000F0D6FA01AD602028806C80BC
:1004E000EC802C81AC806C81AC81EC8101A9300066
:1004F00000F000FB0821300000F00AFB6C80EC806B
:1005000001A9300000F0FDFA0821300000F008FBDE
:100510000121300000F014FB0121300000F020FB2D
:1005200008B070BC08BC184710B5040008000100F2
:100530000906090E652900DB64200006000E1C492F
:100540004843642100F030FB2406240E002C09D11E
:100550000004000C1849086001220021154800F031
:100560000FFB08E00004000C14490860012204217C
:10057000104800F005FB10BC08BC184780B5000609
:10058000000E002808D100200B490860002200213D
:10059000084800F0F5FA07E000200849086000224A
:1005A0000421044800F0ECFA09BC1847000C014093
:1005B000E70300000008004034080040380800400D
:1005C00038B586B00121082000F0E6F8012180202E
:1005D000800000F0E1F8684603210180002421003A
:1005E000C1706946284800F00BFA284D280000F039
:1005F000AFFB019401A82100017121004171E021AC
:100600000903039104940121017401A9280000F059
:10061000AFFB0121280000F0D3FB280000F0E0FB35
:10062000280000F0E2FB0028FAD1280000F0E3FBEC
:10063000280000F0E5FB0028FAD107B030BC08BC68
:10064000184710B50100114C052301220906090EB7
:10065000200000F0DBFB0121200000F013FC022150
:10066000200000F02FFC0028F9D0200000F038FC1A
:1006700010BC08BC18470004000C05494143080B96
:100680000004000C70470000000C014000240140F1
:10069000E40C000010B5010000231A0002E01C0069
:1006A0008C54521C202AFAD319000170437010BCDC
:1006B00008BC18475748016801220A43026056499E
:1006C0000A68564B13400B600268554B1340036099
:1006D0000868544A02400A609F200004524908609A
:1006E00070474C480168514A0A4002600168802204
:1006F00052020A430260704780B5A020C0020090F9
:100700000098411E0091002805D0424800688003EF
:10071000F6D5012000E000200ABC18473E4A1168C7
:10072000F02399430843106070473B4A13684049DF
:100730001940084310607047374A13683D49194013
:1007400008431060704710B4334B1C683A4A22408B
:1007500010430143196010BC704700B50006000E3D
:10076000002806D02B480168802252040A43026008
:1007700004E028480168314A0A40026008BC184772
:10078000254A1168032399430843106070472248A3
:1007900001680C200840704700B50906090E0029C1
:1007A00004D027490A681043086003E024490A6816
:1007B00082430A6008BC184700B50906090E0029E3
:1007C00004D020490A681043086003E01D490A6804
:1007D00082430A6008BC184710B5010000208A0651
:1007E00002D50C4A136806E04A0602D5164A136879
:1007F00001E0164A136801242200C906C90E8A4086
:100800001A40002A00D020000006000E10BC08BCD0
:100810001847000000100240041002400000FFF8DA
:10082000FFFFF6FEFFFF80FF08100240FFFFFBFF07
:10083000FFF8FFFFFFC7FFFFFFFFC0FFFFFFFFFE47
:10084000181002401C1002402010024024100240E8
:10085000054A116803239943084310607047024911
:100860000A681043086070470020024038B5374CD2
:100870002078002836D13648532101704521417037
:1008800047228270C270017152214171202282710F
:10089000C171542101724172002211008172032141
:1008A0000161110014E02B4B10254D4345196B617C
:1008B000294B10254D434519AB618023DB001025E2
:1008C0004D434519EB6110234B43C3181A62491C71
:1008D0000329E8DB8021C9001F4D280000F004FB3C
:1008E0000120207031BC08BC184770B5030010000F
:1008F0000A00174C2569AB4201D3002023E00029F0
:1009000001D0002801D100201DE0102159436118B9
:10091000896910255D436519ED69A84203D310204C
:1009200058432018C069002502E0565D4E556D1CE5
:100930008542FAD3102159436118096A0918102217
:100940005343E218116270BC08BC184768040020C9
:1009500000040020B01300080000002008B410B507
:1009600085B007AB002404930394002902D10194BD
:10097000029402E0491E01900291009404AB01A987
:10098000084878441E3000F0FFFA0199002900D091
:100990000C70002800D4039805B0019910BC02B077
:1009A0000847C046CFFAFFFF7847C046013080E2D3
:1009B000001FB0E10300000A0110D0E4000051E381
:1009C000FAFFFF1A0A0000EA002090E528C09FE520
:1009D0000C1052E00210D1E18C0311E10420B005AB
:1009E000FAFFFF0A0110D0E4000051E30110D01417
:1009F000FCFFFF1A030050E01EFF2FE1010101017F
:100A0000F0B50F23CC781C40CA78D20604D5002C50
:100A100002D022008C78144302000878000614D01B
:100A2000156800260EE00120B0400F88074087427D
:100A300007D1B7001800B840854328002500BD4005
:100A40000543761C082EEED315600888FF2816DDB6
:100A50005668002510E001202F000837B8400F88A5
:100A60000740874207D1AF001800B84086433000E6
:100A70002600BE4006436D1C082DECD35660F0BC2A
:100A800008BC184710B402682A4B13404C880A89E6
:100A900022431A4302604A68C2620988816210BC1C
:100AA000704730B5046A00290CD183697325AB43C4
:100AB00015882B438361D388436301239C43538868
:100AC0001C430EE085691C4B2B4015882D021D43ED
:100AD0008561D388836310239C4353881B01234380
:100AE0001C001289042359438A402243026230BC0D
:100AF00008BC184780B50A000021FFF7D2FF09BCE7
:100B0000184780B50A000121FFF7CBFF09BC184741
:100B1000826908239A430904090C0A4382617047D9
:100B20008369064A1A400904090C090211438161CC
:100B3000704700009FFCFFFFFF8CFFFFFFF7FFFFE8
:100B400000B50906090E002904D0016880220A4375
:100B5000026003E0016880229143016008BC1847ED
:100B600000B50906090E002904D0016801220A43D4
:100B7000026003E0016801229143016008BC18474C
:100B800010B500230904090C042900D10423016ACB
:100B900001249C40A1431204120C9A400A430262B1
:100BA00010BC08BC184700007847C046010050E15F
:100BB000020051231800003A0030A0E3200851E160
:100BC0000118A09110308392200451E10114A091EA
:100BD00008308392200251E10112A09104308392E7
:100BE000200151E10111A09102308392A00051E156
:100BF0008110A09101308392010050E0A110A0E18A
:100C0000001061E20130D3E24A0000DA010090E016
:100C10000100403020C063E28CF18FE0010011E15F
:100C20003301000A010050E10010A0310000A033A0
:100C30000010A0231EFF2FE18000B1E00100403032
:100C40008000B1E0010040308000B1E001004030A0
:100C50008000B1E0010040308000B1E00100403090
:100C60008000B1E0010040308000B1E00100403080
:100C70008000B1E0010040308000B1E00100403070
:100C80008000B1E0010040308000B1E00100403060
:100C90008000B1E0010040308000B1E00100403050
:100CA0008000B1E0010040308000B1E00100403040
:100CB0008000B1E0010040308000B1E00100403030
:100CC0008000B1E0010040308000B1E00100403020
:100CD0008000B1E0010040308000B1E00100403010
:100CE0008000B1E0010040308000B1E00100403000
:100CF0008000B1E0010040308000B1E001004030F0
:100D00008000B1E0010040308000B1E001004030DF
:100D10008000B1E0010040308000B1E001004030CF
:100D20003013A0E1110320E00000A0E002C0A0E326
:100D30001C0380E11EFF2FE1013093E2010090309F
:100D4000010040300010A0E10300A3E01EFF2FE1EE
:100D500000B55549884209D1544801688022920063
:100D60000A4302600168524A0A40026008BC184700
:100D700010B543684F4A1A400B681B0413430A79A5
:100D8000002A03D01A0080235B001343436083686A
:100D9000494A1A408C68CB68234313434A79002A96
:100DA00002D01A00022313438360C36A434A1A40E5
:100DB000097C491E09051143C16210BC08BC1847D3
:100DC00000B50906090E002904D0816801220A43F2
:100DD000826003E0816801229143816008BC18476A
:100DE000816808220A43826070478068C108080051
:100DF000C007C00F7047816804220A4382607047B1
:100E0000806881080800C007C00F7047F0B5140063
:100E10002406240E072C0FDA446B1F25561E0527C7
:100E20007E43B540AC430D002D062D0E521E052607
:100E300072439540254345630A001206120E0A2AA2
:100E40000DDA0269072403254D43AC40A2431B067B
:100E50001B0E032461438B40134303610FE0C26800
:100E600007240D000A3D03267543AC40A2431B0630
:100E70001B0E0A39032461438B401343C360F0BC4B
:100E800008BC184700B50906090E002905D081687D
:100E90008022D2030A43826003E08168084A0A4044
:100EA000826008BC18470000002401400C1002407A
:100EB000FFFDFFFFFFFFC0FFFFFFE1BFFFFF0FFFD1
:100EC000FFFFBFFF00B500680906090E01400029B9
:100ED00001D0012000E000200006000E08BC1847E9
:100EE000C06C0004000C70477847C046022CB0E18B
:100EF000222482E1222882E1010080E0033010E216
:100F00000400000A031051E01100003A833FB0E1F1
:100F100001206045B22060210230A0E100402DE9AF
:100F200002C0A0E102E0A0E1101051E20C50202923
:100F3000FCFFFF8A811EB0E10C002029042020451F
:100F40000111B0E1B2206021012060450040BDE800
:100F50001EFF2FE1031091E001206015020011E354
:100F6000012060151EFF2FE170B506000800002B60
:100F700007D014001D002178641C00F0BDF86D1E20
:100F8000F9D170BC08BC1847F8B588B00290009140
:100F90000392019309E0039A009902980123FFF755
:100FA000E3FF00900398411C039103980078002808
:100FB00022D02528EFD10398039940788A1C039208
:100FC000252812D058286FD0632819D0642820D043
:100FD00069281ED06F2867D070286CD0732872D013
:100FE000752861D078285FD0DFE725210098029A24
:100FF00000F07EF80090D8E709B0F0BC08BC1847B4
:101000000198019A00680168001D09061060090E28
:10101000ECE70198019900680468001D0860002C45
:1010200005D50098029A2D2100F062F80090642006
:101030006F2801D1082506E020210143782901D03D
:101040000A2500E010250B272600642803D1002C78
:1010500001D571420E00040030002900FFF7A4FD05
:10106000303108067F1E000E04973A2802DB20006C
:101070005138091805AAD0190490017030002900D0
:10108000FFF792FD060001D0002FE5DC049C0098DC
:101090000B21CD1BAED0029E2178641C00F02CF8F1
:1010A0006D1EF9D10296A5E70199019A09680C68AD
:1010B000091D1160BCE70198019900680468001DD2
:1010C00008607820B4E70198019900680468001D61
:1010D00008602000FFF768FC050000988AD0029E97
:1010E0002178641C00F008F86D1EF9D1029681E7A2
:1010F000104700001EFF2FE13047000000000FE105
:101100001F00C0E3120080E300F021E134109FE5EE
:1011100007D0C1E31F00C0E3110080E300F021E12C
:1011200024109FE507D0C1E31F00C0E31F0080E348
:1011300000F021E114109FE507D0C1E30000A0E119
:101140000000A0E10E0000EA000000000000000026
:10115000700C002000C09FE51CFF2FE1B5110008B6
:1011600000C09FE51CFF2FE1B911000800C09FE5FA
:101170001CFF2FE13703000800C09FE51CFF2FE193
:10118000EB1100080100A0E3F1FFFFEB000050E3CA
:101190000000000AF1FFFFEB0000A0E10000A0E367
:1011A0000000A0E1F0FFFFEBF2FFFFEB100000EB0F
:1011B000FDFFFFEA0120704710B50949794420314D
:1011C000084C7C441E3405E00A68081D891800F0AC
:1011D0000BF80100A142F7D110BC08BC1847C0466B
:1011E000D8000000E4000000084780B500F012F8C5
:1011F00009BC184700502DE90000A0E12630A0E30B
:10120000803B83E30310A0E11800A0E3563412EF03
:10121000FBFFFFEA7847C0460070B0E10700B0E18D
:10122000F3FFFFEBFDFFFFEA70B40123002413E09E
:101230000168001D194202D04D466D1E49190C600F
:10124000091D121F042AFAD20D00960701D50C8041
:10125000AD1C1A4000D02C700268001D002AE7D196
:1012600070BC70475B5359535D203D3D3D20525546
:101270004E206379636C6520646F6E652C2031307D
:101280007320746F2049444C45203D3D3D0D0A00BC
:101290005B5359535D204261636B20746F20494456
:1012A0004C452C2031307320746F206E657874208B
:1012B00052554E0D0A00000071FFFFFF6C04000044
:1012C00000000020000000005B5359535D203D3DAD
:1012D0003D204155544F20544553542053544152BE
:1012E00054203D3D3D0D0A005B5359535D20494E4E
:1012F0004954202D20686172647761726520696E9F
:1013000069740D0A000000005B5359535D20496E5B
:10131000697420646F6E652C2031307320746F20E7
:1013200049444C450D0A00005B5359535D203D3D37
:101330003D2052554E206379636C65207374617251
:1013400074203D3D3D0D0A005B4144435D20504209
:1013500025643A207261773D25642C2025646D5602
:101360002C2025730D0A00005B5359535D2049441E
:101370004C452074696D656F7574202D3E20525563
:101380004E0D0A005B50574D5D20504225643A20B7
:1013900025730D0A000000004F4B28307E332E339A
:1013A0005629000041424E4F524D414C2100000051
:1013B0005465726D696E616C000000004E4F4E45C1
:0C13C00000000000FEFFFFEA0EF0B0E1AC
:04000005080010FCE3
:00000001FF
